:100000000C94A9000C94D1000C94D1000C94D10054
:100010000C94D1000C94D1000C94D1000C94D1001C
:100020000C94D1000C94D1000C94D1000C94D1000C
:100030000C94D1000C94D1000C94D1000C94D100FC
:100040000C94F5050C94D1000C9465060C943F06B5
:100050000C94D1000C94D1000C94D1000C94D100DC
:100060000C94D6040C94D1004D41583331383635B8
:1000700020436F6E6669677572656400426F6F74C6
:10008000002D2D2D205363616E2066696E697368A3
:100090006564202D2D2D0A004E6F204932432064C7
:1000A00065766963657320666F756E6400556E6B67
:1000B0006E6F77206572726F722061742061646464
:1000C000726573732030780020202100493243206C
:1000D00064657669636520666F756E64206174205F
:1000E00061646472657373203078002D2D2D205368
:1000F00063616E2073746172746564202D2D2D0010
:1001000000000008000201000003040700000000D6
:100110000000000000000000250028002B00000067
:100120000000240027002A0004040404040404043A
:100130000202020202020303030303030102040892
:100140001020408001020408102001020408102041
:10015000970611241FBECFEFD8E0DEBFCDBF11E060
:10016000A0E0B1E0E4ECF2E102C005900D92AA3209
:10017000B107D9F722E0AAE2B1E001C01D92AC3A82
:10018000B207E1F710E0C9EAD0E004C02197FE0110
:100190000E945A09C83AD107C9F70E94E4060C9494
:1001A00060090C94000090E0FC01E45CFE4F249197
:1001B000885D9E4FFC018491882399F090E0880F20
:1001C000991FFC01E25EFE4FA591B491FC01EC5E2B
:1001D000FE4F859194918FB7F894EC91E22BEC93BC
:1001E0008FBF08952091A301260F3327331F21329B
:1001F0003105ECF42091C901FC0190E080E024304D
:1002000069F082E00895A091A3012191AC014F57BC
:100210005E4FA40FB52FB11D2C930196861798F34E
:100220008091A301680F6093A30180E0089581E0AD
:100230000895089508950895E091780180917701D7
:10024000E81730F4F0E0E95AFE4F808190E008951D
:100250008FEF9FEF089590917801809177012FEFB4
:100260003FEF981748F4E92FF0E0E95AFE4F20815C
:1002700030E09F5F90937801C901089580917701E4
:1002800090917801891B990B0895CF92DF92EF929C
:10029000FF920F931F93CF93DF937C01CB018A01D1
:1002A00020915601222389F0EB016B01C40ED51E6B
:1002B000CC15DD0569F06991D701ED91FC910190B4
:1002C000F081E02DC7010995F3CF642F0E94F20061
:1002D000C801DF91CF911F910F91FF90EF90DF90B8
:1002E000CF900895CF93DF931F92CDB7DEB7698388
:1002F000209156012223F9F020917901203258F003
:1003000021E030E0FC013383228390E080E00F9015
:10031000DF91CF91089580917A01E82FF0E0EA5CB7
:10032000FE4F998190838F5F80937A01809379014A
:1003300081E090E0ECCF61E0CE0101960E94F200F6
:10034000F7CF90E0FC01E050FF4F2491FC01E45C0A
:10035000FE4F3491FC01E85DFE4FE491EE23C9F0BD
:10036000222339F0233001F1A8F4213019F1223091
:1003700029F1F0E0EE0FFF1FEC5EFE4FA591B49166
:100380008FB7F894EC91611126C030953E233C93D1
:100390008FBF08952730A9F02830C9F0243049F7DD
:1003A000809180008F7D03C0809180008F77809343
:1003B0008000DFCF84B58F7784BDDBCF84B58F7DA0
:1003C000FBCF8091B0008F778093B000D2CF809127
:1003D000B0008F7DF9CF3E2BDACF1092C90181E0BA
:1003E0008093CB011092CA0161E082E10E94A101D9
:1003F00061E083E10E94A101E9EBF0E080818E7F62
:10040000808380818D7F808388E48093B80085E439
:100410008093BC000895CF93DF9391E09093800187
:100420008823B9F0C091B800D091BA008091BC0087
:100430008A7B8093BC0060E082E10E94A10160E0C1
:1004400083E10E94A1010E94ED01D093BA00C09304
:10045000B800DF91CF9108953FB7F89480913201B1
:1004600090913301A0913401B091350126B5A89B3C
:1004700005C02F3F19F00196A11DB11D3FBFBA2F36
:10048000A92F982F8827BC01CD01620F711D811DF6
:10049000911D42E0660F771F881F991F4A95D1F77B
:1004A00008958F929F92AF92BF92CF92DF92EF9278
:1004B000FF924B015C010E942C026B017C010E94A7
:1004C0002C026C197D098E099F09683E73408105D5
:1004D0009105A8F321E0821A9108A108B10888EEDD
:1004E000C80E83E0D81EE11CF11C81149104A10404
:1004F000B10429F7FF90EF90DF90CF90BF90AF90BD
:100500009F908F900895AF92BF92CF92DF92EF921B
:10051000FF920F931F93CF93DF936C017B018B01AD
:10052000040F151FEB015E01AE18BF08C017D107FD
:1005300059F06991D601ED91FC910190F081E02D87
:10054000C6010995892B79F7C501DF91CF911F91DC
:100550000F91FF90EF90DF90CF90BF90AF900895F4
:1005600090E080E00895FC01538D448D252F30E00C
:10057000842F90E0821B930B541710F0CF960895B0
:1005800001970895FC01918D828D981761F0A28DDD
:10059000AE0FBF2FB11D5D968C91928D9F5F9F73A3
:1005A000928F90E008958FEF9FEF0895FC01918D59
:1005B000828D981731F0828DE80FF11D858D90E0C6
:1005C00008958FEF9FEF0895FC01918D228D892F63
:1005D00090E0805C9F4F821B91098F73992708954B
:1005E0008BEF91E00E94E40221E0892B09F420E0E6
:1005F000822F089580E090E0892B29F00E94F0027C
:1006000081110C9400000895FC01A48DA80FB92F4E
:10061000B11DA35ABF4F2C91848D90E001968F732A
:100620009927848FA689B7892C93A089B1898C9149
:10063000837080648C93938D848D981306C0028898
:10064000F389E02D80818F7D80830895EF92FF9262
:100650000F931F93CF93DF93EC0181E0888F9B8DE5
:100660008C8D98131AC0E889F989808185FF15C09F
:100670009FB7F894EE89FF896083E889F9898081C2
:100680008370806480839FBF81E090E0DF91CF9191
:100690001F910F91FF90EF900895F62E0B8D10E0B3
:1006A0000F5F1F4F0F731127E02E8C8D8E110CC022
:1006B0000FB607FCFACFE889F989808185FFF5CF6D
:1006C000CE010E940403F1CFEB8DEC0FFD2FF11D45
:1006D000E35AFF4FF0829FB7F8940B8FEA89FB89AA
:1006E00080818062CFCF0F931F93CF93DF938C01D4
:1006F000D0E0C0E0F801EC0FFD1F6491662341F0EB
:100700008BEF91E00E942603892B11F02196F2CF06
:10071000CE01DF91CF911F910F910895CF93DF9379
:10072000EC01888D8823B9F0AA89BB89E889F98909
:100730008C9185FD03C0808186FD0DC00FB607FC3E
:10074000F7CF8C9185FFF2CF808185FFEDCFCE0171
:100750000E940403E9CFDF91CF91089508958EBDE3
:1007600000000DB407FEFDCF8EB508958CBD9DBD74
:100770000895FF920F931F93CF93DF93F82E162FB8
:10078000072FC8E9D2E08B819C810E94B60360E00C
:1007900088810E94A1018F2D80680E94AF03802F65
:1007A0000E94AF03812F0E94AF0361E08881DF9137
:1007B000CF911F910F91FF900C94A101CF93809145
:1007C0009F02C2EC833009F4C2ED80919B029091AC
:1007D0009C020E94B60360E0809198020E94A101F1
:1007E00080E80E94AF038C2F0E94AF0361E08091EC
:1007F00098020E94A1016091A5027091A60283E077
:1008000090E00E94B9036091A7027091A80285E070
:1008100090E0CF910C94B903CF93CFB7F894809127
:100820002A01811124C0E2E3F1E08491E6E4F1E0E1
:100830009491E82FF0E0EE0FFF1FE25EFE4FA591CE
:10084000B491EC91E92321F461E08AE00E94A101D6
:100850008AE00E94D3008CB580618CBD8CB5806429
:100860008CBD8DE00E94D3008BE00E94D30080916C
:100870002A018F5F80932A01CFBFCF910895FC0199
:1008800001900020E9F73197AF01481B590BBC01DB
:100890008BEF91E00C948302CF93DF930E9473035C
:1008A000EC0184E291E00E943F048C0F9D1FDF91D8
:1008B000CF9108958F929F92AF92BF920F931F9303
:1008C000CF93DF93CDB7DEB7A1970FB6F894DEBF15
:1008D0000FBECDBF19A2423008F44AE08E010F5D71
:1008E0001F4F842E912CB12CA12CA50194010E94A4
:1008F0003809E62FB901CA01EA30F4F4E05DD80105
:10090000EE938D01232B242B252B79F790E080E0AB
:10091000109719F0CD010E943F04A1960FB6F894EC
:10092000DEBF0FBECDBFDF91CF911F910F91BF9062
:10093000AF909F908F900895E95CE1CF85ED809313
:10094000BC0080917C0190917D01A0917E01B091CD
:100950007F010796A11DB11D23E0B695A795979538
:1009600087952A95D1F72091BC0024FD03C01092F1
:10097000C901089540917C0150917D0160917E01F3
:1009800070917F01452B462B472B69F30097A105FA
:10099000B10541F02AE22A95F1F700C00197A109BB
:1009A000B109E1CF80917B010C940B021F920F9251
:1009B0000FB60F9211242F933F934F935F936F9332
:1009C0007F938F939F93AF93BF93EF93FF93809108
:1009D000B900887F803609F44AC0F0F5883209F4FE
:1009E000A7C018F5803109F49BC0B8F4882309F436
:1009F000F9C0883009F494C0FF91EF91BF91AF9195
:100A00009F918F917F916F915F914F913F912F9126
:100A10000F900FBE0F901F901895883109F488C071
:100A2000803251F78093C80114C0803409F49DC00E
:100A300040F48033B9F38833F9F68093C80185EC2C
:100A4000B0C0803509F485C0883509F496C0883473
:100A500099F60E949E04D0CF883909F48CC038F5ED
:100A6000883729F050F4883611F0803729F683E072
:100A70008093C9011092C70157C0883809F47BC020
:100A8000803919F0803809F0B7CF8091C7018032E2
:100A900008F071C0E091C70181E08E0F8093C7011B
:100AA0008091BB00F0E0E955FE4F80833DC0803B64
:100AB00039F0E0F4803A09F479C0883A09F09CCF23
:100AC00084E08093C9011092A4011092A301E091E7
:100AD000A101F091A20109958091A30181110FC09C
:100AE00081E08093A3011092810109C0803C09F448
:100AF000A6CF883C09F4A3CF883B09F07DCFE091D5
:100B0000A40181E08E0F8093A401F0E0EF57FE4F27
:100B100080818093BB009091A4018091A30129C0A2
:100B20008091EE018093BB0085EC8093BC0064CF84
:100B30009091ED018091EC01981758F5E091ED014D
:100B400081E08E0F8093ED01F0E0E453FE4F808151
:100B5000E9CFE091ED0181E08E0F8093ED0180916E
:100B6000BB00F0E0E453FE4F80839091ED01809153
:100B7000EC019817C8F285E8D8CFE091ED0181E04B
:100B80008E0F8093ED018091BB00F0E0E453FE4FA7
:100B900080838091CB0181115CCF81E08093CA0179
:100BA00084EA8093BC001092C90126CF85EC809323
:100BB000BC001092C9018091C701803230F4E091ED
:100BC000C701F0E0E955FE4F10826091C70170E067
:100BD000E091A501F091A60187EA91E009951092B4
:100BE000C7010ACF1092C80134CF1F920F920FB6DF
:100BF0000F9211242F933F938F939F93AF93BF93A3
:100C000080912E0190912F01A0913001B09131017E
:100C100030912D0123E0230F2D3758F50196A11DAA
:100C2000B11D20932D0180932E0190932F01A0934D
:100C30003001B09331018091320190913301A09144
:100C40003401B09135010196A11DB11D809332018F
:100C500090933301A0933401B0933501BF91AF91CC
:100C60009F918F913F912F910F900FBE0F901F90EA
:100C7000189526E8230F0296A11DB11DD2CF1F9211
:100C80000F920FB60F9211242F933F934F935F93C0
:100C90006F937F938F939F93AF93BF93EF93FF9344
:100CA0008BEF91E00E940403FF91EF91BF91AF9110
:100CB0009F918F917F916F915F914F913F912F9174
:100CC0000F900FBE0F901F9018951F920F920FB6A6
:100CD0000F9211242F938F939F93EF93FF93E091A3
:100CE0000B02F0910C028081E0911102F09112024E
:100CF00082FD1BC09081809114028F5F8F732091C1
:100D00001502821741F0E0911402F0E0E550FE4F29
:100D1000958F80931402FF91EF919F918F912F9166
:100D20000F900FBE0F901F9018958081F4CFEFEEBB
:100D3000F1E01382128288EE93E0A0E0B0E08483B9
:100D40009583A683B78324E031E031832083EBEFE2
:100D5000F1E01382128284839583A683B78386E1B0
:100D600091E09183808385EC90E09587848784EC83
:100D700090E09787868780EC90E0918B808B81EC68
:100D800090E0938B828B82EC90E0958B848B86EC49
:100D900090E0978B868B118E128E138E148EE9EA5B
:100DA000F2E081E081838FE78283E8E9F2E08DE57C
:100DB000838314828FE5858316828FEF9FEF96875A
:100DC0008587108A17860895789484B5826084BDDB
:100DD00084B5816084BD85B5826085BD85B581603F
:100DE00085BD80916E00816080936E0010928100BD
:100DF0008091810082608093810080918100816078
:100E00008093810080918000816080938000809138
:100E1000B10084608093B1008091B00081608093C4
:100E2000B00080917A00846080937A0080917A008B
:100E3000826080937A0080917A00816080937A004A
:100E400080917A00806880937A001092C100E091CE
:100E50000B02F0910C0282E08083E0910702F09196
:100E600008021082E0910902F0910A028FEC80835F
:100E700010921302E0910F02F091100286E080833D
:100E8000E0910D02F0910E02808180618083E091FB
:100E90000D02F0910E02808188608083E0910D0246
:100EA000F0910E02808180688083E0910D02F091C4
:100EB0000E0280818F7D80838CE790E00E944C043D
:100EC0000E940C0489E00E94D30061E089E00E9446
:100ED000A10189E08093980284E080939F0280E9D9
:100EE00091E09093A1028093A0028BE291E0909315
:100EF0009A02809399020E940C0480919D02909125
:100F00009E020E94B6030E94DE0380E897E490935D
:100F1000A8028093A70260E877E485E090E00E9451
:100F2000B90380E891E59093A6028093A50260E85A
:100F300071E583E090E00E94B90388E690E00E94AA
:100F40004C0464E670E080E090E00E945102109250
:100F500078011092770110927A01109279010E9423
:100F6000ED0189E191E09093A2018093A1018AE1D2
:100F700091E09093A6018093A50125EEF22E35EC29
:100F8000E32E00E010E042E0D42ECC24CA948091FD
:100F90009B0290919C020E94B60360E080919802AF
:100FA0000E94A10181E00E94AF0380E00E94AF0394
:100FB000C82FD0E0DC2FCC2780E00E94AF03C82BE5
:100FC00061E0809198020E94A101D695C795D093C7
:100FD000A302C093A20280919B0290919C020E9466
:100FE000B60360E0809198020E94A10187E00E9410
:100FF000AF0380E00E94AF03C82F61E080919802A8
:101000000E94A101C093A4028091A2029091A30228
:10101000892B09F0C1110E94DE038BEE90E00E9443
:101020004C041092A902C091AA02D1E08091AB02B7
:10103000C81708F0FFC0D0935601C0932C0110923E
:101040007A01109279010E942C024B015C0180917F
:10105000C901811162C0D092C901D093CB01C09265
:10106000C8011092ED011092EC011092EE019091E6
:10107000EE018C2F880F892B8093EE018091CA019D
:10108000813009F094C01092CA010E942C024B01D9
:101090005C018091EE018093BB0080917C01909176
:1010A0007D01A0917E01B0917F01892B8A2B8B2B32
:1010B000A1F00E942C0240907C0150907D01609034
:1010C0007E0170907F01681979098A099B0946168B
:1010D00057066806790608F441C08091BC0083FD7C
:1010E000D8CFE092BC000E942C024B015C018091A1
:1010F000C901823009F45EC08091C8018F3F09F4B4
:101100007BC08091C801803209F478C08091C80109
:10111000803309F475C084E026C080917C019091F1
:101120007D01A0917E01B0917F01892B8A2B8B2BB1
:1011300009F48DCF0E942C0240907C0150907D01DB
:1011400060907E0170907F01681979098A099B0976
:10115000461657066806790608F079CF80917B011C
:101160000E940B0285E010927A0110927901109290
:101170005601811147C08CEC90E00E947303C0318E
:1011800020F487E291E00E943F046C2F70E090E031
:1011900080E040E10E945A0488EC90E00E944C04F8
:1011A0008091A9028F5F8093A902CF5F3FCFF09219
:1011B000BC0099CF80917C0190917D01A0917E012E
:1011C000B0917F01892B8A2B8B2B09F490CF0E9441
:1011D0002C0240907C0150907D0160907E017090C7
:1011E0007F01681979098A099B094616570668061E
:1011F000790608F07CCFB2CF80E0B5CF82E0B3CFE4
:1012000083E0B1CF843089F68DEA90E00E947303C9
:10121000C03120F487E291E00E943F046C2F70E01F
:1012200090E080E040E10E945A0484E291E00E9454
:101230003F04BBCF8091A902811104C088E990E0EE
:101240000E944C0481E890E00E944C0468E873E13D
:1012500080E090E00E9451020115110509F497CE3B
:101260000E94F002882309F492CE0E9400008FCEE3
:10127000A1E21A2EAA1BBB1BFD010DC0AA1FBB1F9A
:10128000EE1FFF1FA217B307E407F50720F0A21B0C
:10129000B30BE40BF50B661F771F881F991F1A9479
:1012A00069F760957095809590959B01AC01BD01A3
:1012B000CF010895EE0FFF1F0590F491E02D0994E2
:0412C000F894FFCFD0
:1012C4000000000072014501B0021B013E012B0128
:1012D4001C010000000026038302B3028E03E40213
:0A12E400C202D6020D0A003000001D
:00000001FF
